{
  "transactions": [
    {
      "hash": "0x766e3ccb0422bd3486255088949b3f570b25b90fb9cec3a6363a78bbf577cb91",
      "transactionType": "CALL",
      "contractName": "ProsperityAidrop",
      "contractAddress": "0x2a4871972ece4e6e04a07e0f3e3d8168a261dce2",
      "function": "setMerkleRoot(address,bytes32,bool,uint256)",
      "arguments": [
        "0x471EcE3750Da237f93B8E339c536989b8978a438",
        "0x5de676e6fe67bf2d3c01be91bcf27dac80f4fc9362cd69cc0cb0a73845d97465",
        "true",
        "1758480587"
      ],
      "transaction": {
        "from": "0x1726cf86da996bc4b2f393e713f6f8ef83f2e4f6",
        "to": "0x2a4871972ece4e6e04a07e0f3e3d8168a261dce2",
        "gas": "0xf3e1",
        "value": "0x0",
        "input": "0x36ef2af5000000000000000000000000471ece3750da237f93b8e339c536989b8978a4385de676e6fe67bf2d3c01be91bcf27dac80f4fc9362cd69cc0cb0a73845d9746500000000000000000000000000000000000000000000000000000000000000010000000000000000000000000000000000000000000000000000000068d048cb",
        "nonce": "0x11b",
        "chainId": "0xa4ec"
      },
      "additionalContracts": [],
      "isFixedGasLimit": false
    }
  ],
  "receipts": [
    {
      "status": "0x1",
      "cumulativeGasUsed": "0x12f9b6",
      "logs": [
        {
          "address": "0x2a4871972ece4e6e04a07e0f3e3d8168a261dce2",
          "topics": [
            "0xe8904ee2eb29dff90d136116d4e6758973669ae1bfa651b7659705cb939a0650"
          ],
          "data": "0x000000000000000000000000471ece3750da237f93b8e339c536989b8978a4380000000000000000000000000000000000000000000000000000000068d048cb",
          "blockHash": "0xf646fb854936add54feb9963aa9492d47edcfc416f25121de538ebfb9e2c95f7",
          "blockNumber": "0x29de20d",
          "transactionHash": "0x766e3ccb0422bd3486255088949b3f570b25b90fb9cec3a6363a78bbf577cb91",
          "transactionIndex": "0x9",
          "logIndex": "0x28",
          "removed": false
        }
      ],
      "logsBloom": "0x00000000000000000010000000000000000000000000000000000000000000000000000000000000000000000000000000000000000000000000000000000000000000000000000000000000000000000000000000000000000000000000000000000000000000000000000000000000000000000000040000000000000000000000000000000000000000000000000000004000000000000000000000000000000000000000000000000000000020000000000020000000100000000000000000000000000000000000000000000000000000000000000000000000000000000000000000000000000000000000000000000000000000000000000000000000",
      "type": "0x0",
      "transactionHash": "0x766e3ccb0422bd3486255088949b3f570b25b90fb9cec3a6363a78bbf577cb91",
      "transactionIndex": "0x9",
      "blockHash": "0xf646fb854936add54feb9963aa9492d47edcfc416f25121de538ebfb9e2c95f7",
      "blockNumber": "0x29de20d",
      "gasUsed": "0xa6c2",
      "effectiveGasPrice": "0x5d22cfc40",
      "from": "0x1726cf86da996bc4b2f393e713f6f8ef83f2e4f6",
      "to": "0x2a4871972ece4e6e04a07e0f3e3d8168a261dce2",
      "contractAddress": null,
      "l1BaseFeeScalar": "0x0",
      "l1BlobBaseFee": "0x1",
      "l1BlobBaseFeeScalar": "0x0",
      "l1Fee": "0x0",
      "l1GasPrice": "0x13d4d3fe",
      "l1GasUsed": "0x760"
    }
  ],
  "libraries": [],
  "pending": [],
  "returns": {
    "0": {
      "internal_type": "contract ProsperityAidrop",
      "value": "0x2a4871972Ece4e6E04a07E0F3e3D8168a261Dce2"
    }
  },
  "timestamp": 1755802211,
  "chain": 42220,
  "commit": "02672b5"
}