{
  "transactions": [
    {
      "hash": "0xd4bd9d0448d492eaff17a0196c8ed8a84ee3d5156086c03153661a31f9553526",
      "transactionType": "CALL",
      "contractName": "ProsperityAidrop",
      "contractAddress": "0x2a4871972ece4e6e04a07e0f3e3d8168a261dce2",
      "function": "setMerkleRoot(address,bytes32,bool,uint256)",
      "arguments": [
        "0x471EcE3750Da237f93B8E339c536989b8978a438",
        "0xc6f434a596ef9576ff110b99f4a01cb8b4ae07d9c8e1ac0fe8b7a69e339ac98b",
        "true",
        "1756144313"
      ],
      "transaction": {
        "from": "0x1726cf86da996bc4b2f393e713f6f8ef83f2e4f6",
        "to": "0x2a4871972ece4e6e04a07e0f3e3d8168a261dce2",
        "gas": "0xf3e1",
        "value": "0x0",
        "input": "0x36ef2af5000000000000000000000000471ece3750da237f93b8e339c536989b8978a438c6f434a596ef9576ff110b99f4a01cb8b4ae07d9c8e1ac0fe8b7a69e339ac98b00000000000000000000000000000000000000000000000000000000000000010000000000000000000000000000000000000000000000000000000068aca2b9",
        "nonce": "0x113",
        "chainId": "0xa4ec"
      },
      "additionalContracts": [],
      "isFixedGasLimit": false
    }
  ],
  "receipts": [
    {
      "status": "0x1",
      "cumulativeGasUsed": "0xb63fb",
      "logs": [
        {
          "address": "0x2a4871972ece4e6e04a07e0f3e3d8168a261dce2",
          "topics": [
            "0xe8904ee2eb29dff90d136116d4e6758973669ae1bfa651b7659705cb939a0650"
          ],
          "data": "0x000000000000000000000000471ece3750da237f93b8e339c536989b8978a4380000000000000000000000000000000000000000000000000000000068aca2b9",
          "blockHash": "0xe8474fe8565ac77c2f4ac615e98f060c457e20cf8fc13c5e297d84992ffbbe35",
          "blockNumber": "0x299dff0",
          "transactionHash": "0xd4bd9d0448d492eaff17a0196c8ed8a84ee3d5156086c03153661a31f9553526",
          "transactionIndex": "0x6",
          "logIndex": "0x12",
          "removed": false
        }
      ],
      "logsBloom": "0x00000000000000000010000000000000000000000000000000000000000000000000000000000000000000000000000000000000000000000000000000000000000000000000000000000000000000000000000000000000000000000000000000000000000000000000000000000000000000000000040000000000000000000000000000000000000000000000000000004000000000000000000000000000000000000000000000000000000020000000000020000000100000000000000000000000000000000000000000000000000000000000000000000000000000000000000000000000000000000000000000000000000000000000000000000000",
      "type": "0x0",
      "transactionHash": "0xd4bd9d0448d492eaff17a0196c8ed8a84ee3d5156086c03153661a31f9553526",
      "transactionIndex": "0x6",
      "blockHash": "0xe8474fe8565ac77c2f4ac615e98f060c457e20cf8fc13c5e297d84992ffbbe35",
      "blockNumber": "0x299dff0",
      "gasUsed": "0xa6c2",
      "effectiveGasPrice": "0x5d22cfc40",
      "from": "0x1726cf86da996bc4b2f393e713f6f8ef83f2e4f6",
      "to": "0x2a4871972ece4e6e04a07e0f3e3d8168a261dce2",
      "contractAddress": null,
      "l1BaseFeeScalar": "0x0",
      "l1BlobBaseFee": "0x1",
      "l1BlobBaseFeeScalar": "0x0",
      "l1Fee": "0x0",
      "l1GasPrice": "0x25e8d2b5",
      "l1GasUsed": "0x760"
    }
  ],
  "libraries": [],
  "pending": [],
  "returns": {
    "0": {
      "internal_type": "contract ProsperityAidrop",
      "value": "0x2a4871972Ece4e6E04a07E0F3e3D8168a261Dce2"
    }
  },
  "timestamp": 1755539527,
  "chain": 42220,
  "commit": "aa204e8"
}