{
  "transactions": [
    {
      "hash": "0xa513659dd7381b4fd2cdfaab40f704340eb3cc016a23c92c044f9b63dc3e03f1",
      "transactionType": "CALL",
      "contractName": "ProsperityAidrop",
      "contractAddress": "0x2a4871972ece4e6e04a07e0f3e3d8168a261dce2",
      "function": "setMerkleRoot(address,bytes32,bool,uint256)",
      "arguments": [
        "0x471EcE3750Da237f93B8E339c536989b8978a438",
        "0xd261cff9d5adec714268bdca43132920c4dc3c96ddd0861c81d07ba47417ebcc",
        "true",
        "1756139251"
      ],
      "transaction": {
        "from": "0x1726cf86da996bc4b2f393e713f6f8ef83f2e4f6",
        "to": "0x2a4871972ece4e6e04a07e0f3e3d8168a261dce2",
        "gas": "0xf3e1",
        "value": "0x0",
        "input": "0x36ef2af5000000000000000000000000471ece3750da237f93b8e339c536989b8978a438d261cff9d5adec714268bdca43132920c4dc3c96ddd0861c81d07ba47417ebcc00000000000000000000000000000000000000000000000000000000000000010000000000000000000000000000000000000000000000000000000068ac8ef3",
        "nonce": "0x10f",
        "chainId": "0xa4ec"
      },
      "additionalContracts": [],
      "isFixedGasLimit": false
    }
  ],
  "receipts": [
    {
      "status": "0x1",
      "cumulativeGasUsed": "0x5a589",
      "logs": [
        {
          "address": "0x2a4871972ece4e6e04a07e0f3e3d8168a261dce2",
          "topics": [
            "0xe8904ee2eb29dff90d136116d4e6758973669ae1bfa651b7659705cb939a0650"
          ],
          "data": "0x000000000000000000000000471ece3750da237f93b8e339c536989b8978a4380000000000000000000000000000000000000000000000000000000068ac8ef3",
          "blockHash": "0x0d71d2f14e3e367934a31017370f61dd8b24f0d76871d25245b948d5ae1a6d68",
          "blockNumber": "0x299cc2a",
          "transactionHash": "0xa513659dd7381b4fd2cdfaab40f704340eb3cc016a23c92c044f9b63dc3e03f1",
          "transactionIndex": "0x5",
          "logIndex": "0xb",
          "removed": false
        }
      ],
      "logsBloom": "0x00000000000000000010000000000000000000000000000000000000000000000000000000000000000000000000000000000000000000000000000000000000000000000000000000000000000000000000000000000000000000000000000000000000000000000000000000000000000000000000040000000000000000000000000000000000000000000000000000004000000000000000000000000000000000000000000000000000000020000000000020000000100000000000000000000000000000000000000000000000000000000000000000000000000000000000000000000000000000000000000000000000000000000000000000000000",
      "type": "0x0",
      "transactionHash": "0xa513659dd7381b4fd2cdfaab40f704340eb3cc016a23c92c044f9b63dc3e03f1",
      "transactionIndex": "0x5",
      "blockHash": "0x0d71d2f14e3e367934a31017370f61dd8b24f0d76871d25245b948d5ae1a6d68",
      "blockNumber": "0x299cc2a",
      "gasUsed": "0xa6c2",
      "effectiveGasPrice": "0x5d22cfc40",
      "from": "0x1726cf86da996bc4b2f393e713f6f8ef83f2e4f6",
      "to": "0x2a4871972ece4e6e04a07e0f3e3d8168a261dce2",
      "contractAddress": null,
      "l1BaseFeeScalar": "0x0",
      "l1BlobBaseFee": "0x1",
      "l1BlobBaseFeeScalar": "0x0",
      "l1Fee": "0x0",
      "l1GasPrice": "0x3c092868",
      "l1GasUsed": "0x760"
    }
  ],
  "libraries": [],
  "pending": [],
  "returns": {
    "0": {
      "internal_type": "contract ProsperityAidrop",
      "value": "0x2a4871972Ece4e6E04a07E0F3e3D8168a261Dce2"
    }
  },
  "timestamp": 1755534466,
  "chain": 42220,
  "commit": "3ef67ff"
}